:020000040800F2
:1010000000500020394300083543000833430008EE
:101010003343000833430008334300080000000056
:101020000000000000000000000000003543000840
:101030003543000800000000354300083543000830
:1010400033430008334300083343000833430008A8
:101050003343000833430008334300083343000898
:101060003343000833430008334300083343000888
:101070003343000833430008334300083343000878
:10108000334300083343000833430008E5320008C7
:10109000C5320008D5320008334300083343000846
:1010A0003343000833430008334300083343000848
:1010B000334300083D12000833430008334300085F
:1010C0003343000833430008334300083343000828
:1010D0003343000833430008334300083343000818
:1010E0003343000833430008334300083343000808
:1010F00033430008334300083343000833430008F8
:1011000033430008334300083343000833430008E7
:1011100033430008334300083343000833430008D7
:1011200033430008334300083343000833430008C7
:1011300033430008334300083343000811330008E9
:10114000F13200080133000833430008334300083C
:1011500008B502F0CFFE01F055FB0E4B99881868D8
:1011600002F0E3FC10B1012001F052FB0A4801F04B
:101170006DFA0146062000F025FB012000F01AFB65
:10118000012805D1054B1868BDE8084001F024BCD2
:1011900008BD00BFFC02002008030020540100200D
:1011A00008B50E4B9988186802F0C2FC02F0CAFC20
:1011B0000B4B186800F0CEFA0A23410191FBF3F1C2
:1011C000072000F007FB012000F0F4FA28B9054BD6
:1011D0001868BDE8084001F0FFBB08BDF40200201C
:1011E0005C0100205401002037B50024214608206E
:1011F000013400F0E7FAB4F5FF6FF7D110240125B0
:101200008DE830000948002340F2231208210068CD
:1012100001F090FD8DE830000548002340F22312D4
:101220000821006801F086FD03B030BD54010020A4
:1012300058010020FFF7D8BF70470000014B186825
:1012400000F05ABA5C01002030B52F4CADF62C2DC1
:1012500000F076F800F079F9214601222B4801F0E0
:1012600035FA022320222A492A4800F0B9FF4FF418
:10127000005204232146284800F0B2FF01F070F923
:1012800000F09EF800F0E2F800F06AF900F04CF986
:1012900000F036FB01F08AFA2049684600F0D0F9E8
:1012A0001F4B0020C3F800D000F084FA0AADC2B290
:1012B0001C49284601F072FF002000F07BFA0DF572
:1012C000A564C2B21849204601F068FF174B684672
:1012D0001D60174B0A2217491C6000F0D7F96846B9
:1012E0006422154900F0D2F94FF4FA7268461349A6
:1012F00000F0CCF90421084600F064FA00F002FB8B
:1013000000200DF62C2D30BD0010014008030020F8
:10131000000C0140FC020020F40200200004004008
:101320005C0100200064004000680040540100207F
:101330005801002051110008A111000835120008C1
:1013400008B502F017FD1C4B1C4A40F202301A602F
:1013500002F056FD40F2033002F052FD4FF44170AE
:1013600002F04EFD40F2053002F04AFD40F29230AC
:1013700002F046FD4FF4607002F042FD40F2813011
:1013800002F03EFD40F2823002F03AFD4FF4207050
:1013900002F036FD40F2093002F032FD40F28620C4
:1013A00002F02EFD4FF4407002F02AFDBDE8084027
:1013B00040F2993002F024BD0CED00E00003FA0584
:1013C00070B596B001AD00212846142200F000FF50
:1013D0001A4B1B4A01934FF40053ADF80830012318
:1013E00003928DF80A3006228DF80B308DF81230FA
:1013F0000023ADF810208DF8133002F015FA1421F7
:10140000284602F01FFA0F4C1590236D984212D017
:1014100002F032FB204602F0EBFA0B4E04F1784367
:10142000A3F5FA332046E958043402F03FFBB442F6
:10143000F4D102F02DFB16B070BD00BF00100140CA
:10144000000C014000F4010854F4010870B5324D5D
:101450004FF4806302220321304802F033FB284618
:101460004FF4E13102F004FF2846082102F014FF96
:1014700028464FF4005102F018FF28460C2102F0D4
:1014800020FF2846002102F016FF00212846244CA8
:1014900002F01DFF284602F030FF284602F032FF1E
:1014A000204E2046022102F0DBF92046022102F004
:1014B00025FA32462046022102F03BFA204600225D
:1014C000022102F0F9F900222046022102F0E8F997
:1014D0002046022102F0FCF92046032102F0C0F967
:1014E00032462046032102F024FA2046002203213E
:1014F00002F0E2F900222046032102F0D1F9204651
:10150000032102F0E5F92046032102F000FA284603
:10151000BDE8704002F0E1BE00480040000C014010
:10152000000002400448004008B51C2002F056FFAD
:10153000E0211C2002F060FF1D2002F04FFFBDE8FB
:10154000084000211D2002F057BF08B503204FF4CA
:101550001C7102F001FDBDE80840002002F0D4BC7F
:1015600010B5344C204602F037FD0021204602F031
:101570001FFD204602F017FD20460622002102F042
:1015800034FD20460622022102F02FFD20460622CD
:10159000042102F02AFD06222046114602F025FD14
:1015A0002046002102F0E7FD2046022102F0E3FD83
:1015B0002046042102F0DFFD2046062102F0DBFD7B
:1015C0002046002102F0F1FD2046022102F0EDFD4F
:1015D0002046042102F0E9FD2046062102F0E5FD47
:1015E0002046002102F006FE2046022102F002FE03
:1015F0002046042102F0FEFD2046062102F0FAFDFD
:101600002046012102F02BFE2046002102F0E9FCD9
:101610004FF48051204602F0E6FC204602F0D7FC51
:10162000BDE810404FF4607302220321024802F02B
:1016300049BA00BF00080040000C0140704700009C
:1016400038B504460D462162084602F0ACFC284637
:1016500002F0B8FC284640F2CF2102F0C2FC284636
:101660004FF6FF7102F0BFFC4FF6FF7323826382D7
:10167000A382E3820023044A636222606260A26064
:10168000E260204638BD00BF3D160008F8B5436A49
:101690000446032B0F4615462ADC006A02F09CFC28
:1016A000144E636A0122F15C206A02F09EFC636AB8
:1016B0000022F15C206A02F0C2FD0221636A05EBA0
:1016C000850505EB850503F10802AD0044F823709C
:1016D000994024F81250206A02F058FC0021206A38
:1016E00002F0C3FD206A02F072FC636A0133636298
:1016F000F8BD00BF344400082DE9F8430546002436
:101700004FF0020800F1100608FA04F94946286A69
:1017100002F040FCB8B1286A02F0A5FD4946074630
:10172000286A02F03DFC2B6A3288343353F82410C7
:101730000A4443F8242055F824309847286A02F0D8
:1017400092FDC01B30810134042C06F10206DBD16E
:10175000BDE8F88330B500F1100200F118010A2548
:1017600000201446238924886B4393FBF4F3023250
:1017700091421844F5D130BD1C2310B5084C03FB31
:101780000043DC688C4209DC1B69994206DC054B8E
:1017900043F82010FFF750FD002010BDFF2010BDC2
:1017A0002400002000000020014B53F82000704767
:1017B00000000020024B53F820004011704700BF8A
:1017C00000000020024B490143F82010704700BF81
:1017D00000000020014B43F820107047000000205B
:1017E000F8B5054600241C27074E07FB046329466D
:1017F000586800F047FC08B9E0B2F8BD0134092C84
:10180000F3D10A20F8BD00BF2400002000231C21D2
:1018100010B5064A01FB0324A469844201D1D8B261
:1018200010BD0133092BF5D10A2010BD2400002082
:101830001C22024B02FB0030704700BF2400002036
:101840001C23044A03FB0023D8681B69C01A18BF75
:1018500001207047240000200023074A074952F85E
:10186000040C18B152F8080C41F823000133092B7D
:1018700002F11C02F3D1704740000020000000205C
:10188000014B1954704700BF60010020024A135CED
:1018900019431154704700BF60010020024A135CD5
:1018A00023EA01011154704760010020014B185CCC
:1018B000704700BF60010020024B1A68024BC3F85A
:1018C00094207047440100202400002010B50A4CE9
:1018D0000321204602F024F82046084A032102F0A2
:1018E00031F820460321802202F03CF82046BDE872
:1018F0001040032102F00BB80000024074010020E8
:10190000FFF7E4BF2DE9F04F00263446DFF8F490EE
:10191000384DA1B00321484602F01DF80746C0F13A
:10192000800808B9FFF7D2FFB246DFF8D0B0C24551
:10193000564636DBB8F1000FECDDC7F17F07EB5DF3
:101940000A2B01D00D2B4CD100232021284605F86D
:10195000083000F0B8FB0678044656BB0A2128463A
:1019600000F0B1FB04468DF80060237823B90D2107
:10197000284600F0A8FB0446002323701E4C216873
:1019800019B1284600F07EFBC0B92368002B08BFC0
:101990000024FFF79BFF9CB9B8F1010F17D1002677
:1019A000B8E715F80A10584602F09CFC0AF1010A43
:1019B000BDE7411C684600F075FBD6E70834DEE75A
:1019C0000E4802F0ACFC636868469847E7E70C4EA7
:1019D0000A4F16F8011F0029E1D0384602F082FCB8
:1019E000F7E72B78212B95D1002C93D0FFF76EFFD2
:1019F000E9E700BF740100200C45000800480040E2
:101A0000EE440008000002400A282DE9F041224C73
:101A1000224D234E02D023687F2B36D133682268B3
:101A200005EBC313DFF880801E4F98540222404616
:101A3000114601F02BFF10B93B68002BF6D00221B4
:101A4000194801F06DFF22680221013292B2164856
:101A500001F088FF3268022105EBC212124801F042
:101A600071FF02221048114601F00AFF02210E48C0
:101A700001F04DFF3368B3FA83F35B093360002351
:101A80003B6023600020BDE8F081326805EBC215A1
:101A9000E8540133F5E700BF70010020F401002095
:101AA0006C0100202001002000000240704700006F
:101AB000044B0548196853F8042C083B1B6800F0D8
:101AC00041BD00BFF0F7FF1FC645000810B500F08C
:101AD0004BFB03780948302B0CBF4FF4E1344FF433
:101AE000612400F02FFD2146054800F02BFD214622
:101AF000BDE81040034802F0BBBB00BFA648000889
:101B0000184800080048004008B502F05FFC00F0EB
:101B1000B7BE00002DE9F04786B000F025FB06783F
:101B2000702E08D1002000F0CDFF544906B0BDE86A
:101B3000F04700F094BF632E0AD1002000F0C2FFEE
:101B400001F091F84E4806B0BDE8F04700F0FABC4D
:101B5000202100F0B8FA03780BB94A48F3E700F007
:101B600003FB2021074600F0AEFA03780BB9642E80
:101B7000F3D105460024384605F8014BFFF730FE47
:101B80000746284600F0F0FA0A2F054601D13E48E4
:101B9000D9E7642E0CD1204600F094FF394601F0BD
:101BA00042FA0146394806B0BDE8F04700F0CABC29
:101BB000A1460DF1080A2021284600F084FA037896
:101BC00080460BB9032CC8D188F80090284600F055
:101BD000B1FA032C28D138BB284600F05CFB4FF447
:101BE000001393FBF0F0059008F1010000F0BCFA3F
:101BF0000134042C0546DED1742E4FF0000016D1BE
:101C000000F060FFBDF91430029A0193049B39463D
:101C10000093039B01F08EF8431D042B22D8DFE8CC
:101C200003F01C1F191613004AF82400DCE700F02B
:101C300049FFBDF91430029A0193049B3946009381
:101C4000039B01F085F8E7E702991148ABE7039998
:101C50001048A8E704991048A5E702990F48A2E7A1
:101C60000F4870E70F4B104A01460128D8BF1A46AB
:101C70000E4806B0BDE8F04700F064BCB11C000897
:101C80001047000832470008454700085947000838
:101C90006E4700088247000896470008AA470008D8
:101CA000D24700084948000884440008EE4700086D
:101CB0002DE9F047DDF820809DF824900D4616466A
:101CC0001F46FFF7B5FD44680A4800F03BFCB9F138
:101CD000000F0DD0084800F035FCCDF8248008979F
:101CE00033462A462146BDE8F047044800F02ABCA6
:101CF0000348F0E7A8450008AD450008B5450008D1
:101D0000B14500082DE9F04100F02EFA0446104FCD
:101D1000DFF840802C21204600F0D5F9002306781A
:101D2000054603702046FFF75BFD0A280CD0FFF73D
:101D30003BFD014640462C4600F004FC2C2E04F8E6
:101D4000016BE7D0BDE8F08121463846F3E700BFDC
:101D5000304800082B4800082DE9F04F8DB000F006
:101D600003FA90F80080304800F0ECFB00262027B2
:101D7000DFF8C890DFF8C8A0DFF8C8B0F5B2284691
:101D8000FFF756FD04462846FFF790FDC30702D52E
:101D9000B8F1680F3AD16268A368284605920493A7
:101DA000FFF702FD049B059A39460090484600F073
:101DB000C9FB002000F086FE0DF11F0302930BAB60
:101DC00001930AAB009308AA09AB294600F071FD04
:101DD00070B19DF81F10154A154B1648002908BF11
:101DE000134601930B9B08A900930EC900F0AAFBB0
:101DF0002846FFF725FD90B10196236804F10C01F8
:101E000000930EC9584600F09DFB2C270136092E81
:101E1000B4D1094800F096FB0DB0BDE8F08F5046F4
:101E200000F090FBF1E700BF424600083C46000886
:101E30003746000844460008E4460008EA46000821
:101E4000D34600088546000808B500F063FC01464B
:101E5000064800F077FB002000F034FE01F036F970
:101E6000BDE80840024800F06DBB00BF0B4600080B
:101E70002746000808B5FFF7EFFCBDE80840014819
:101E800000F060BBCF4500082DE9F04F85B000F0B1
:101E90006BF9044600F04EF920210646204600F07A
:101EA00012F903782BB92C4805B0BDE8F04F00F0CB
:101EB00049BB0025A846DFF8B090441C2C212046E1
:101EC00000F001F9074690F800A080F80080204655
:101ED000FFF786FC3C460A2804F801AB2DD004AB82
:101EE0002B4403F80C0C01353B782C2B01D1092D28
:101EF000E4DD1A4802F00FFADFF86080DFF86C903A
:101F00002021404602F00FFA10BB002E01DC721CAB
:101F10001ED10446124FDFF858A00DF1040BA54264
:101F20000FD01BF80400FFF73FFC3946024650462D
:101F300000F008FB01344F46F1E7484600F002FB91
:101F4000D2E7084800F0FEFA731CD9D0013ED7E76B
:101F500005B0BDE8F08F00BF844500080048004090
:101F60004948000847480008454700088C490008D0
:101F7000A3450008F8B500F0F7F82021074600F067
:101F8000A2F80378044623B91848BDE8F84000F0E9
:101F9000D9BA002505703846FFF722FC0A28064604
:101FA00016D06378212B0AD07E2B08D02F2B06D099
:101FB000611C0F4800F066F880B10E48E5E7A11CEF
:101FC0000125F6E701213046FFF768FC0A48DCE707
:101FD0003946BDE8F840094800F0B4BA002DF1D107
:101FE00001213046FFF752FCF0E700BF83480008AC
:101FF00093480008C24800089A480008AB48000807
:1020000038B500F0B1F82021044600F05CF8037800
:1020100023B90F48BDE8384000F094BA002300F817
:10202000013B00F038F905462046FFF7D9FB0A28A6
:1020300007D02946FFF7A0FB08B90648EAE706489B
:10204000E8E72146BDE83840044800F07BBA00BF0D
:102050004A480008654800086E480008AB48000878
:1020600008B500F0A3FB30B9FFF7E6F80348BDE878
:10207000084000F067BA0248F9E700BFE1450008F0
:10208000F545000810B5013810F8013F0C4623B1A2
:1020900011F8012B0AB19342F6D02078C01A18BF6C
:1020A000012010BD013911F8013F0BB903707047D1
:1020B00000F8013BF7E702460346981A13F8011BA4
:1020C0000029FAD170470346184613F8012B0AB1CC
:1020D0008A42F9D170470029F0B503461BDA2D205A
:1020E00003F8010B012049421C46C71A91FBF2FE7E
:1020F000254602FB1E11303105F8011BBEF100011F
:102100001E4605EB07000CDC00232B70B4420AD8F6
:10211000F0BD0020E8E7FCD13022417002700120C0
:10212000F0BD2C46E2E73378227806F8012B04F85C
:102130000139EBE730B5037800212D2B0CBF4FF0B0
:10214000FF3401244FF00A0508BF0130431E13F885
:10215000012F303AD0B2092802D904FB01F030BD7A
:1021600005FB0121F3E7000010B51349044610F800
:10217000012BA2F10A03DBB2162B19D821FA03F3C3
:10218000DA07F3D42046FFF796FF0B4901382044C5
:102190008442024609D2137801380A3BDBB2162B7F
:1021A00003D821FA03F3DB07F2D40023537001E0D4
:1021B000002AE7D1204610BD09004000043812F182
:1021C000FF3200D2704751F8043B40F8043FF6E775
:1021D00012F1FF3200D2704740F8041BF8E700000C
:1021E000013BDBB2032B70B50C46154601608280C3
:1021F00011D80B4A0B48D15C0B4AC65CD25C2B460B
:10220000204601F05FFC012E09D129462046BDE899
:10221000704001F088BC002602223146EFE770BD15
:102220001A490008224900081E4900084FF40042DC
:10223000014B1A80704700BF040300200029B4BF7F
:102240004FF0FF320122642370B501FB02F401322A
:102250004FEA641104F01F04054603FB04F404BFB5
:102260002D2305F8013B06460A222846FFF733FFD7
:102270002E226411092C2A5498BF302205EB00034A
:1022800003F101009CBF5A70981C0A222146FFF7F7
:1022900022FF304670BDF0B5037800252D2B0CBF12
:1022A0004FF0FF3601264FF00A0708BF0130024603
:1022B00012F8013BA3F13001CCB2092C0FD94BB17C
:1022C0000A220023174610F8011FA1F13004E1B2E1
:1022D000092908D903EB451306FB03F0F0BD07FB02
:1022E00005151046E3E7511001EB441191FBF2F1A3
:1022F0007A430B44E7E728B1036819700368013398
:10230000036070470846FFF77FBB2DE9F843141EB2
:1023100080460D4627DD0A46501B12F8011B002996
:10232000FAD18442CCBF241A0C4613F0020F0CBF22
:1023300020273027DB071ED42646002E15DC24EA92
:10234000E473E41A5E1B06EB050915F8011BA1B93D
:102350002546002D15DC002CACBF09EB040009F16B
:102360000000BDE8F8832027E4E739464046FFF740
:10237000C2FF013EE1E70023E4E74046FFF7BBFF71
:10238000E1E739464046FFF7B6FF013DE1E72DE9B9
:10239000F04385B081461D460C9FDDF834800C4625
:1023A00061B930238DF805108DF804303A46434664
:1023B00001A9FFF7AAFF05B0BDE8F0832BB10A2AF7
:1023C0001CD100291ADA01254C42002304AE06F87C
:1023D000013D0E9B3A3B9CB945B1EFB118F0020F9D
:1023E0001AD02D214846FFF786FF013F43463A4663
:1023F00031464846FFF789FF2844DCE70025E4E73B
:10240000B4FBF2F102FB1144092CC8BFE4183034CC
:1024100006F8014D0C46DEE72D23013E3370002502
:10242000E4E700002DE9F04307460E461446002578
:102430004FF00A08DFF808918BB0337823B1252BD1
:1024400073D17378711C2BB9002F74D128460BB04F
:10245000BDE8F083252B67D02D2B0ABF0123002375
:10246000B11C0A78481C302A16D0002208780E4683
:10247000A0F1300E5FFA8EFCBCF1090F01F10101F1
:102480000ED973280FD121680434002908BF4946AA
:102490003846FFF73AFF14E043F002030146E0E755
:1024A00008FB02E2E2E764280ED161208DE80C000F
:1024B0002146012302900A22096838460434FFF7B6
:1024C00066FF05440136B8E7782807D12146612028
:1024D0008DE80C00029000231022EDE7582802D16D
:1024E00021464120F4E7752806D161208DE80C00D3
:1024F000214602900023DEE766280AD1216807A85A
:10250000059304920434FFF799FE059B049A07A9EA
:10251000BEE76328D6D1216804348DF81810002155
:102520008DF8191006A9B3E70E4631783846FFF743
:10253000E2FE0135C6E700223B681A7086E700BF5D
:10254000264900080FB407B504AA52F8041B00205E
:102550000192FFF767FF03B05DF804EB04B070472A
:1025600007B52D4800F01CFF2B4800F01EFF2A483D
:1025700000F025FF284800F01DFF0121264800F04B
:10258000FAFE254800F0CAFE0023244A0193019B6D
:10259000934203DC019B01330193F8E71E4800F0EE
:1025A000CDFE1D4800F0DDFE1D4A01211A4800F055
:1025B0000BFF194800F04EFF1A4A01211A4801F09A
:1025C000B8F91A4A0121184801F0BCF94FF4807299
:1025D0000121154801F070F94FF480620121124881
:1025E00001F05EF90C2201210F4801F0BBF9012135
:1025F0000D4801F06DF901210B4801F072F901213C
:10260000094801F084F9044800F01AFF024800F07C
:102610008DFE03B05DF804FB002401407F3801000B
:10262000060300204C240140000002400C0300205F
:10263000884207DD914203DC01469142A8BF114662
:10264000084670479042F8DD0146F9E713B50024CB
:102650000368063333F8022C33F8041C33F8060CF5
:10266000FFF7E6FF2DF814000134042C03F10603F4
:10267000F0D1BDF80230BDF800001844BDF80430B8
:102680001844BDF806301844C0F38F0002B010BDE6
:102690000D4B98420BD003F5806398420DD0A3F503
:1026A000006398420ED107290CDCC8B2704701299B
:1026B00008DC01F10800C0B27047052902DC01F115
:1026C0000A00F8E710207047000C0140012370B5A4
:1026D00093400C4615460022064611469BB2204602
:1026E00001F0F0F929462046FFF7D2FF3368034A8C
:1026F0009B1A034AC3F34F03D05470BD0C03002050
:1027000006030020014A024B1A6070470C030020A8
:1027100008030020F0B5ADF2044D01F085F84FF448
:1027200080724FF0FF316846FFF752FD6C4600257E
:10273000EEB23046FFF784F818B17F2D04F108049B
:102740001DD1FE21684601F07DF8FE9001F094F95C
:10275000144801F04DF9134C134D04F17843A3F5DF
:10276000FE3320465DF80310043401F09FF9AC42BB
:10277000F3D101F08DF9FE980DF2044DF0BD304615
:10278000FFF756F807463046FFF790F804F8050CB7
:10279000BB69304624F8083CFFF706F8013544F8D9
:1027A000040CC5E700FC01080000020870B5134CDA
:1027B00001F03AF8FE21204601F044F8D4F8F8334D
:1027C000984218D10E4E043434F8040CFFF71EF86A
:1027D0000A2805460AD034F8043C3BB12168FEF7CC
:1027E000F9FF14F8011C2846FFF74AF80834B442F0
:1027F000EAD1002070BD4FF0FF3070BD00FC010831
:10280000FCFF0108014B1860704700BF2C0300203B
:1028100030B50B4C235C93B90A4B1D687DB10A4B54
:102820000A490B4A18700B6802F8330002EBC30226
:1028300055600122134403F0030322540B6030BDA2
:10284000280300202C030020300300202403002054
:1028500024010020074B10B403EBC1021479064A8F
:1028600053F8313052F82420014610BC0348FFF7DA
:1028700069BE00BF30490008404900084C490008C3
:1028800038B5094D6B6823B9BDE838400748FFF7F4
:1028900059BE00242B19586828B1295D0834FFF768
:1028A000D9FF202CF6D138BD240100205C49000856
:1028B00070472DE9F04700244FF6FF794FF00108EB
:1028C0000A9E00F5FA7C3470851CAC1E241AB4F5FF
:1028D000FA7F23DA35F8027C4F451FD02C46A4EB53
:1028E000050EBEF12F0F17DC94F905E0BEF1000FC5
:1028F00012DDB4F800A08A450CD1176022790120BE
:102900001A60089BB4F90220C3F800E0099B1A6022
:10291000BDE8F0870634E2E73235D6E73478604622
:1029200086F80080002CCFD00020BDE8F0870000A2
:102930000C220023514330B50B4C8BB062189568C4
:102940005268089305926258079304920695039380
:1029500002930193009301221946D0F8FC0400F081
:102960008BFD0BB030BD00BF9849000873B504461D
:102970000E46D0F8FC040121154600F075FE082330
:102980000093002301951A463146D4F8FC0400F068
:1029900070FE002803DAD4F8DC34132B0BDDD4F8F6
:1029A000DC34002B16DD0121D4F8FC0402B0BDE8B4
:1029B000704000F055BE0C2202FB0342296801332F
:1029C000C2F8F0136968A2F8EC63C2F8F413C4F813
:1029D000DC34E4E702B070BD2DE9F34106464FF662
:1029E000FF75841CA31E9B1BB3F5FA7F34DA34F801
:1029F000023CAB4230D0002327464FF00108009341
:102A000001933B1B2F2B1FDC97F90530002B1BDD9F
:102A10003878FEF7C9FEB7F90230584397F9053008
:102A200008FA03F3013B03EA60103B791F2B06DD34
:102A3000203B9840019B184301900637E1E79840FE
:102A4000009B18430090F8E734F8021C6A463046B1
:102A5000FFF78CFF3234C5E702B0BDE8F0812DE905
:102A6000F3478946064600274FF6FF7A00F5FA78C5
:102A7000B41CA31E9B1BB3F5FA7F1DDA34F8023C8D
:102A8000534519D025462B1B2F2B13DC063515F982
:102A9000013C002B0EDD15F8022C34F8021C15F851
:102AA000060C019735F904ECCDF800E0C847EAE7D9
:102AB0000127DDE73234DCE74646002FF8D002B0CC
:102AC000BDE8F0870128DABF024B53F82000002050
:102AD000704700BF3403002073B504460C25082658
:102AE000D4F8DC34002B11DD013B6B43E21803F515
:102AF0007C732344B2F8EC130193002300961A462A
:102B0000D4F8FC0400F0B5FD00280CDAD4F8DC346D
:102B10000BB102B070BD0121D4F8FC0402B0BDE8D5
:102B2000704000F0A1BDD4F8DC34013BC4F8DC34C3
:102B3000D6E7F0B501271C46106885B09B88029740
:102B400007400197E78815460E46628821887F0175
:102B5000BFB25B01520149019BB292B289B20097A8
:102B600000F06EFD002333602A6801322A60E380A2
:102B7000A3806380238005B0F0BD000040F20163B4
:102B8000F0B5012285B0ADF80830002304460025D9
:102B90000092D0F8FC14284AADF80A309142ADF802
:102BA0000C30ADF80E3018BF244B00F2E4461CBFC9
:102BB0001B68C3F305230193D4F8F8349D4213DA5C
:102BC000009B04AA02EB430236F8021B0133042BDC
:102BD00022F8081C009305D102AB01AA69462046E1
:102BE000FFF7A7FF0135E7E704F5FA7635464FF61C
:102BF000FF77AB1BB3F5FA7F009B13DA2A88BA4242
:102C000010D004A901EB43010133042B21F8082C57
:102C1000009305D102AB01AA69462046FFF789FF60
:102C20003235E6E7002B05DD02AB01AA69462046F6
:102C3000FFF77FFF05B0F0BD00640040006A004070
:102C400010B54FF6FF70002401F1300201F5097153
:102C5000134623F8300DDC7106339A42FBD1323231
:102C60008A42F5D110BD10B504460146FFF7E8FFD2
:102C7000204604F5FA71FFF7E3FF2046BDE8104057
:102C8000FFF77CBF002310B5CC5AC818944204D07B
:102C90003233B3F5FA7FF7D1002010BD2DE9F843A8
:102CA000B3F5006F81460C4690461D46089F099E6D
:102CB0002CDA3F2F2EDC202E30DC1A46FFF7E2FF05
:102CC00030B94FF6FF724846FFF7DCFF50B305807E
:102CD000023090F90530002B01DD0630F9E70133B1
:102CE00024D0BDF92830A0F80080438007714671D8
:102CF000234600204FF6FF72191BB1F5FA7F17DA51
:102D00001988914214D001303233F5E74FF0FF308B
:102D1000BDE8F8836FF00100BDE8F8836FF00200B2
:102D2000BDE8F8836FF00300BDE8F8836FF004009E
:102D3000BDE8F8831FB5BDF91C400294069C8DE8E0
:102D4000180013460A460146FFF7A8FF04B010BD5D
:102D500030B585B0BDF9245004460295089D8DE834
:102D6000280013460A4600F5FA71FFF797FF05465B
:102D70002046FFF703FF284605B030BDB1F801201B
:102D800073B5B2F5005F05460C461BD1C87808281C
:102D900018DC0B78402B0ED14968FEF7EDFC70BBB8
:102DA00023232370224640F28151284602B0BDE819
:102DB0007040FFF7DBBD222BF4D1FEF7F5FC432377
:102DC0006060EEE7A2F54053B3F5C05F25D2E1782D
:102DD000082922DC2378402BE4D1606812F4804F6C
:102DE000C0F30726C3B24FEA20400190C2F30A02A3
:102DF000009628460ED0FFF7ABFF0028D0DA8023DC
:102E0000237030232371002363710923A3710623E8
:102E1000E371C7E7FFF78EFFEFE7802323700023FE
:102E2000237163710223F1E72DE9F04305460F4654
:102E300001268BB0002305930DF11A0303930DF1C6
:102E40001B0302930DF119030DF12008019306AB4A
:102E50000093CDF8108007AB0122F9B2D5F8FC043D
:102E600000F07CFC002859D040F20163079C9C4292
:102E700008D19DF81A30082B04D141462846FFF7A7
:102E80007DFFD7E7224605F5FA712846FFF7FAFEDF
:102E900000283DD000F1020800F10809A9F106035D
:102EA000A3EB08032F2B2EDC19F9012C002A2ADDB5
:102EB00019F8023C1F2B1BDDA3F12004099B06FA25
:102EC00002F223FA04F4531E1C4039F9041C640175
:102ED00019F8060C4C43FEF7B3FC641139F8063CB4
:102EE000214660B1D8B2FEF747FC09F10609D5E7E3
:102EF000089C06FA02F2DC40013A1440E5E7D8B239
:102F0000FEF768FCF1E700F0F5FFC5F8E80391E78C
:102F1000D5F8E0344146204698478BE70BB0BDE832
:102F2000F0832DE9F0410025984614462E468F1A6D
:102F300045450ADA206800F07FFC0646E01954F89F
:102F4000041B00F0B3FD0135F2E73046BDE8F08127
:102F50002DE9F74F0020064601F108040193A4F182
:102F600008056D1AB5F5FA7F3EDA4FF6FF7334F8AF
:102F7000088C984538D0322303FB06FC02EB0C0585
:102F80000095002725464FF00109A4F1060AA5F196
:102F9000060EAEEB0A0BBBF12F0F1DDC15F901BCC1
:102FA000BBF1000F18DD35F806BC019B9B4511D025
:102FB0004FF00609009B55F806BC09FB0739C9F814
:102FC00002B035F802EC0137A9F806E04FF000092D
:102FD0000635DCE70130FBE7B9F1000F02D122F83A
:102FE0000C8001363234BAE703B0BDE8F08FF0B59B
:102FF00004460D461646FFB001A9FFF721FE3346F1
:1030000001AA29462046FFF7A3FF07462946204686
:10301000FFF716FE33462A4601A92046FFF798FF20
:1030200038467FB0F0BD70B50A460D4601460446ED
:10303000FFF7DDFF2A46064604F5FA712046FFF742
:10304000D6FF304470BDF8B50E464FF6FF778C1CA6
:10305000A31E9B1BB3F5FA7F16DA34F8023CBB4281
:1030600012D025462B1B2F2B0CDC063515F9013C05
:10307000002B07DD15F8060CFEF7DAFB836925F84F
:10308000063CEFE73234E3E7F8BDF8B50E464FF6FD
:10309000FF778C1CA31E9B1BB3F5FA7F15DA34F85F
:1030A000023CBB4211D025462B1B2F2B0BDC0635D7
:1030B00015F9013C002B06DD35F8060CFEF7A6FBE2
:1030C00025F8060CF0E73234E4E7F8BD73B50446A2
:1030D0001A4E00F0A9FB00F0CFFC022000F0C2FC69
:1030E000304600F085FC04F5FA7521462046FFF7CE
:1030F000AAFF29462046FFF7A6FF224631467D2338
:103100002046FFF70EFF2A467D230D492046FFF794
:1031100008FF02AA42F8040D01230A492046FFF7DE
:1031200000FF00F0B5FC21462046FFF7AEFF294620
:103130002046FFF7AAFF02B070BD00BF00F80108EB
:10314000F4F90108E8FB010838B5114B04461D6885
:1031500000F06AFBFA210F4800F074FB854215D19C
:10316000204604F5FA757D220A49FFF727F87D22EB
:1031700028460949FFF722F821462046FFF785FF38
:1031800020462946FFF781FF012038BD002038BDC9
:10319000E8FB010800F80108F4F90108F8B5044655
:1031A00000250E46424BC0F8E853C0F8E034C0F8A2
:1031B000DC54C0F8F854C4F8FC141746FFF753FD6C
:1031C0002046FFF7C1FF3B4B9E421AD003F58063B8
:1031D0009E4241D0D4F8FC0400F042F93946204622
:1031E000FFF7A6FB2046FFF7C9FCD4F8FC04022138
:1031F00000F036FAD4F8FC04102100F031FA204631
:10320000F8BD4FF40063022229462B4800F05AFC17
:103210004FF40061284800F086FC4FF480530222EE
:103220000321254800F04EFC142001F0D7F8F021CE
:10323000142001F0E1F8152001F0D0F8F02115205C
:1032400001F0DAF8132001F0C9F8F021132001F0A1
:10325000D3F81A4B1C60BDE74FF480530222294675
:10326000174800F02FFC4FF48051154800F05BFC2C
:103270004FF4005302220321114800F023FC4020A8
:1032800001F0ACF8F021402001F0B6F8412001F047
:10329000A5F8F021412001F0AFF83F2001F09EF8A1
:1032A000F0213F2001F0A8F8044B5C6092E700BFDA
:1032B000B1280008006400400008014034030020E9
:1032C000000C0140024B00211868FFF7ADBD00BFA4
:1032D00034030020024B01211868FFF7A5BD00BF91
:1032E00034030020014B1868FFF7F6BB34030020BD
:1032F000024B00215868FFF797BD00BF3403002040
:10330000024B01215868FFF78FBD00BF3403002036
:10331000014B5868FFF7E0BB340300208368DB07EC
:103320005EBF836843F00103836070478368DB07F7
:1033300042BF836843F0010383607047836800F1F4
:10334000080243F00803836013681B07FCD470472E
:10335000836843F00403836070478068C0F3800093
:10336000704708B50246FFF7F3FF1046FFF7F5FF79
:103370000028FAD108BD0022134610B501FA02F464
:1033800003321E2A43EA0403F8D10022036101FA42
:1033900002F40332182A43EA0403F8D1C36010BDD3
:1033A000836823F0010383607047436843F48073AC
:1033B00043607047836823F40063836070478368C9
:1033C00043F00203836070471029F0B50CD8002445
:1033D00001232646274625468B4206D9013945EA70
:1033E0000155C56207634663F0BD062B98BF92F88E
:1033F00000E002F101029CBF0EFA04FE46EA0E064E
:10340000A3F1070EBEF1050F9FBF12F801ECA4F166
:103410001E0C0EFA0CFE47EA0E07A3F10D0EBEF1CC
:10342000050F9EBF12F801ECA4F13C0C0EFA0CFE45
:1034300003F1010398BF45EA0E05DBB20534CBE783
:10344000836800F1080243F48003836013685B0221
:10345000FCD47047836843F4807383607047000036
:10346000044B98420CBF40F2192040F21A2000F0A1
:10347000D4BC00BF006400402DE9F34104689DF80E
:1034800020C024F00204046004689DF824E044F0A5
:10349000010404604FF6FF749DF828709DF83C50BD
:1034A0009DF840600194019C013C019414B1446872
:1034B000E407F8D5D0F80480041D18F0010F71D08E
:1034C0004FF00008C0F81C80002950D0016841F07E
:1034D00080010160002A4ED0026842F04002026082
:1034E000002B4CD0036843F0200303600368BCF159
:1034F000000F48D043F0100303600368BEF1000FD3
:1035000044D043F0080303600368002F41D043F028
:1035100004030360C369002E3ED043F00043C3613F
:10352000C369002D3BD043F08043C3610E9B0D99CE
:10353000013BC3F309030B430C99C2690B430B997D
:103540000B431343C361036823F0010303604FF689
:10355000FF730193019B013B019313B12368DB07C8
:10356000F8D4406800F0010002B0BDE8F0810168C5
:1035700021F08001ADE7026822F04002AFE7036866
:1035800023F02003B1E723F01003B5E723F008038D
:10359000B9E723F00403BCE723F00043BFE723F0BF
:1035A0008043C2E70120DFE7F0B501241F4E8440CD
:1035B00035689DF81C7045F001053560E6431C4DEB
:1035C000D5F800E00EEA060EC5F800E0DFF86CE082
:1035D00009B3DEF800102143CEF800101549F2B10E
:1035E0000A68224300F1006000F6C8400A60C0008B
:1035F0000360069A059B43600F4B9AB11A682243F9
:103600001A6017B12B681C432C60084A136823F01A
:1036100001031360F0BDDEF800103140DCE70A68FA
:103620003240DFE71A6816401E60EAE70066004095
:103630001C66004004660040146600400C660040B2
:1036400030B4BDF808409DF8105044EA034302939B
:10365000049542EA014330BC01220021FFF7A4BFD8
:103660004369194341617047436923EA010141619C
:103670007047F0B5044680689DF814E04001069D4F
:103680004BD4A06800014FD4A068C00050D44FF0C4
:10369000FF30F0BDC90041F0040144F80C102BB11B
:1036A00054F80C2042F0020244F80C2004EB0C0306
:1036B0005A6822F00F025A6059680EF00F020A434E
:1036C0000EF1FF3E5A60BEF1070F1FD8DFE80EF083
:1036D0001B1815110E0B08040027EA7962F31F6707
:1036E000AA7962F317476A7962F30F272A7962F39E
:1036F00007070026EA7862F31F66AA7862F3174686
:103700006A7862F30F262A7862F307069E60DF600C
:103710001A6842F001021A60F0BD4FF4C07C00202C
:10372000002AB7D14905B8E74FF4C87C0120F7E774
:103730004FF4D07C0220F3E721B9C36843F02003A3
:10374000C3607047036943F020030361704719B9F0
:10375000C06800F0030070470069FAE72DE9F347FD
:10376000DDF828A005460E469946DDF82C800E9C13
:103770000F9BFFF7ECFF4FF4E07107464FF4D87052
:103780008DE8030002A901EB860151F8081C55F8E9
:1037900001E068181EF0040E15BF4FF0010E8AF804
:1037A00000E08AF800E055F801E016BF55F801E0A6
:1037B0004FEA5E5E4FEADE0EC9F800E0695811F08C
:1037C000020118BF012188F8001041684FEA112E4C
:1037D0000C9981F800E0416801F00F0E0D9981F815
:1037E00000E013B14168090C19808168C368C1F316
:1037F000072021706070C1F30740C1F30761E170D9
:10380000C3F3072123716171C3F30741C3F3076356
:10381000A070A171E3711AB131462846FFF78CFF01
:10382000384602B0BDE8F087024A136843F001034E
:103830001360704708300240014B186018687047E9
:1038400000300240002310B5044A8B4201DB1068AF
:1038500010BD50F8234001331460F6E700300240F9
:1038600014230022013903FB01039A60DA601A6114
:103870005A618B000F2142689940114341607047A3
:103880000139890002FA01F141607047013903688A
:10389000890002FA01F1194214BF0120002070478B
:1038A00014230139594308300B5823F440630B505B
:1038B0000B581A430A5070471423013959430830F2
:1038C0000B5823F440730B500B581A430A5070479F
:1038D00014230139594308300B5843F080030B502F
:1038E000704714230139594308300B5843F0200323
:1038F0000B500B5823F480430B50704714230139AD
:10390000594308300B5843F010030B5070471423F1
:103910000139594308300B5843F001030B507047ED
:1039200014230139594308300B5823F001030B507D
:1039300070471423013903FB01008368DB0758BF7C
:10394000026170471423013903FB01008368DB0720
:1039500058BF426170471423013959430C3008584D
:1039600080B270471423013959430C300A50704714
:10397000064B10B51C6800F04FFDB0F5007F82BF0C
:10398000034B1868044304F0350010BD0C200240BE
:103990004C20024038B504460D4600F081F800F096
:1039A0003BFDB0F5007F18D90E4B9C4215D90E4A4D
:1039B000136843F001031360258000F071F800F0F4
:1039C0002BFDB0F5007F0AD9064B9C4207D9064A69
:1039D000136823F00103136038BD044AE8E7034A83
:1039E000F6E700BFFFFF070850200240102002400A
:1039F00010B5044600F054F800F00EFDB0F5007F5D
:103A00001DD9134B9C421AD9124B1A6842F002027C
:103A10001A60114A14601A6842F040021A6000F0FD
:103A20003FF800F0F9FCB0F5007F0FD9084B9C423D
:103A30000CD9084A136823F00203136010BD074B2A
:103A40001A6842F002021A60054AE3E7034AF1E706
:103A5000FFFF07085020024054200240102002407F
:103A600014200240034A136823F007031843106030
:103A7000704700BF00200240034B044A1A6002F165
:103A800088321A60704700BF042002402301674556
:103A9000024A136843F0800313607047102002400D
:103AA00008B5FFF765FFC307FBD408BD38B5054669
:103AB0000C4689B2FFF76EFF210CA81CBDE8384008
:103AC000FFF768BF2DE9F0434FF6E07700264FF08F
:103AD0000F0896469C46026843684CFA06F4E407D1
:103AE00018D5072EB4B28BBF3C4691469946A40028
:103AF00098BFA4B208FA04F529EA0509A51C0EFA34
:103B000005F501FA04F42C4344EA0904082E2CBFFD
:103B10002346224601360437102EBFB2DDD10260A3
:103B20004360BDE8F08301617047806808407047DA
:103B3000C36803EA010221EA030141EA024101618B
:103B4000704700004AF6AA22014B1A60704700BF76
:103B500000300040024A136843F0807313607047DE
:103B600000100240062822D8DFE800F004090E13F6
:103B7000181D1F000F4B1868C0F3406070470D4BB5
:103B80001868C0F3C06070470A4B1868C0F34070F3
:103B90007047084B1868C0F340407047054B1868E1
:103BA000C0F340007047044BF9E7044BF7E70020EF
:103BB000704700BF00100240201002402410024055
:103BC000024608B51046FFF7CDFF0028FAD008BD21
:103BD00006280CD8DFE800F004060C11161B1D00A7
:103BE000FFF7B8BF0C4A136843F080631360704757
:103BF000094A136843F08053F8E7074A136843F40F
:103C00008033F3E7044A136843F00103EEE7034A05
:103C1000F9E7034AF7E700BF001002402010024016
:103C200024100240034A136823F003031843106072
:103C3000704700BF04100240034A136823F4701356
:103C400043EA80401060704704100240034A136842
:103C500023F4803343EA00401060704704100240B0
:103C6000034A136823F4003343EA4040106070476E
:103C700004100240024B186800F40040704700BF77
:103C800020100240024A136843F400431360704757
:103C90002010024006283DD8DFE800F037373726ED
:103CA000370415001C4B1A6842F001021A601A68AA
:103CB0009007FCD51A6822F440721A601A6842F420
:103CC00080721A607047154B1A6842F001021A6040
:103CD0001A689107FCD5104B1A6822F440721A60DA
:103CE0001A6842F40072ECE70D4B1A6842F4803215
:103CF0001A601A689203FCD5074B1A6822F44072C6
:103D00001A601A6842F44072DBE7034A136823F42E
:103D100040731360704700BF20100240241002401F
:103D200000100240034A136823F4404343EA803002
:103D30001060704704100240034A136823F4605374
:103D400043EAC0201060704704100240034A136821
:103D500023F4E06343EA002010607047041002403F
:103D6000034A136823F0F00343EA00101060704721
:103D70000410024008B50420FFF72AFF0420FFF7D3
:103D80001FFF0020FFF74EFF0320FFF721FF032056
:103D9000FFF716FF0120FFF745FF0020FFF7E0FFC8
:103DA0000320FFF7BFFF0420FFF7D0FF0020FFF73D
:103DB000C3FF0220FFF756FE0720FFF73DFF01205B
:103DC000FFF744FF0020FFF74BFFFFF7C3FE002083
:103DD000FFF7F6FE0220FFF725FF044B044A0549D2
:103DE0001360054A1160054A136008BD00A24A0429
:103DF00048010020005125024C0100205001002004
:103E0000430900F01F02012003F1804303F504334E
:103E10001968904008431860704700F01F0243097A
:103E2000012003F1804303F50433196890400143F6
:103E300019601A6822EA000018607047044B1A687B
:103E40009206FCD51A6842F010021A60704700BF53
:103E500004280040044B1A6822F010021A601A6805
:103E60009206FCD5704700BF0428004038B50446D0
:103E700000254FF46770FFF7C3FF40F29B30FFF758
:103E8000BFFF00F0CFFA2046FFF704FF0D4C0E4BAA
:103E90001D602560FFF7F6FEFFF7D0FF0B4B0C4AC5
:103EA0001D605D601D615D614FF6FF7313605360BF
:103EB000FFF7D0FF236823F00803236023681B0764
:103EC000FCD538BD042800400028004008280040E8
:103ED0002028004008B5FFF7B1FF054B82B2C0F3C0
:103EE00003401A6043F8040CBDE80840FFF7B2BF76
:103EF0000C280040034B186804331B6843EA004059
:103F0000704700BF1828004008B5FFF797FF044B23
:103F1000020C80B21A605860BDE80840FFF79ABFF3
:103F20001828004008B54FF46770FFF769FF40F2AA
:103F30009B30FFF765FF00F075FA064B1A6822F018
:103F400008021A601A681107FCD51A689206FCD597
:103F500008BD00BF0428004038B505464FF467701F
:103F60000C46FFF74DFF40F29B30FFF749FFFFF78C
:103F700081FE18B1BDE83840FFF7D4BF2846FFF7EF
:103F800075FF2046BDE83840FFF7A4BFC36819435A
:103F9000C160704703690B4214BF012000207047C5
:103FA000C94301617047036843F0800303607047B1
:103FB000036801F0600123F06003036003681943A4
:103FC00001607047036823F01003036070470368C3
:103FD00043F0010303607047036823F001030360AB
:103FE000704781627047C162704706297AD8DFE85E
:103FF00001F00479337963799200836923F0030334
:10400000836183698361836923F070038361072A75
:1040100068D8DFE802F03304090D1115191D836912
:1040200043F0100383617047836943F02003F9E78D
:10403000836943F03003F5E7836943F04003F1E718
:10404000836943F05003EDE7836943F06003E9E7D8
:10405000836943F07003E5E7836923F44073836168
:1040600083698361836923F4E0438361072A39D834
:10407000DFE802F004060A0E12161A1E8369D1E761
:10408000836943F48053CDE7836943F40053C9E760
:10409000836943F44053C5E7836943F48043C1E730
:1040A000836943F4A043BDE7836943F4C043B9E7A0
:1040B000836943F4E043B5E7C36923F00303C361B5
:1040C000C369C361C36923F07003C361072A09D8B8
:1040D000DFE802F03304090D1115191DC36943F01F
:1040E0001003C3617047C36943F02003F9E7C36954
:1040F00043F03003F5E7C36943F04003F1E7C369D8
:1041000043F05003EDE7C36943F06003E9E7C36997
:1041100043F07003E5E7C36923F44073C361C369E7
:10412000C361C36923F4E043C361072ADAD8DFE837
:1041300002F004060A0E12161A1EC369D1E7C369FB
:1041400043F48053CDE7C36943F40053C9E7C3691F
:1041500043F44053C5E7C36943F48043C1E7C369EF
:1041600043F4A043BDE7C36943F4C043B9E7C3695F
:1041700043F4E043B5E7062912D8DFE801F0041163
:1041800009110D111200836943F008038361704720
:10419000836943F40063F9E7C36943F00803C3612B
:1041A0007047C36943F40063F9E7062909D8DFE8DB
:1041B00001F0041509190D1D1100036A23F0020313
:1041C00003627047036A23F02003F9E7036A23F4CC
:1041D0000073F5E7036A23F40053F1E7036A23F061
:1041E0000803EDE7036A23F08003E9E7036A23F499
:1041F0000063E5E7062909D8DFE801F0041509198D
:104200000D1D1100036A43F0010303627047036A46
:1042100043F01003F9E7036A43F48073F5E7036A98
:1042200043F48053F1E7036A43F00403EDE7036AC4
:1042300043F04003E9E7036A43F48063E5E70629B6
:104240000CD8DFE801F0040B060B080B0A004263F0
:10425000704782637047C263704702647047436966
:10426000194341617047406A7047416270470000DE
:10427000064A074B90421B6804BF064B1B6803EBC2
:104280005103B3FBF1F18160704700BF003801407A
:104290004C01002050010020C36808290CBF23F402
:1042A000805343F48053C3607047036923F4405341
:1042B000194301617047C36823F4C0631943C160A7
:1042C0007047C36823F00C031943C160704743690A
:1042D00023F44073194341617047C36843F40053AA
:1042E000C360704738B504460D4600F018F82946FB
:1042F0002046BDE8384000F00AB8436943F0400367
:1043000043617047436943F0800343617047C1F3E1
:104310000801416070474068C0F3080070470368B7
:104320001B06FCD5704703680B4214BF0120002018
:104330007047FEE770470000002238B51849194C55
:1043400019485318834217D30021184A934217D3B0
:10435000174A184C1368184D43F400731360AC42AD
:1043600011D3164C164DAC4211D3FCF76DFF154C12
:10437000154DAC420FD338BD135953500432E0E70A
:1043800019600433E2E754F8043B9847E7E754F830
:10439000043B9847E7E754F8043B9847E9E700BF38
:1043A00000000020D4490008540100203C030020F4
:1043B00014ED00E0C8490008C8490008C8490008D1
:1043C000D4490008D4490008D4490008014A024BE6
:1043D0001A60FEE70400FA050CED00E00122430933
:1043E0009B0003F1604300F01F0003F5614302FAF4
:1043F00000F0186070470000432893BF00F1604050
:10440000044B00F00F0000F564408CBFC1540170F4
:10441000704700BF14ED00E0014B1888704700BFE3
:10442000E0F7FF1F024A136843F48073136070477C
:104430000070004000020406436F6D6D756E696385
:104440006174696F6E0063616E73706565640030DE
:104450003D3235306B2C20313D3530306B2C2032E5
:104460003D3830306B2C20333D314D0063616E7030
:104470006572696F6400303D3130306D732C2031CE
:104480003D31306D730054657374696E67007465F7
:104490007374706172616D00487A006F706D6F6443
:1044A0006500303D4F66662C20313D52756E0076BA
:1044B000657273696F6E00343D312E30302E522D8F
:1044C0006E616D65006C6173746572720074657302
:1044D0007461696E00646967006370756C6F616414
:1044E000002500746573744D73670076616C005528
:1044F0006E6B6E6F776E20636F6D6D616E6420738F
:10450000657175656E63650D0A0000000D49000850
:1045100001200008D1480008051D0008D548000802
:10452000751F0008DA480008891E0008E1480008E5
:10453000751E0008EA480008491E0008DC4400080F
:1045400061200008EF480008AD1A0008F448000890
:10455000591D0008F9480008151B0008FD4800080F
:10456000B11A0008044900080F1B00080B49000895
:10457000091B000811490008CD1A000800000000BE
:104580000000000055736167653A207374726561BD
:104590006D206E2076616C312C76616C322E2E2E61
:1045A0000D0A00257325660063616E200072782075
:1045B000007478200025732025642025642025645C
:1045C0002025640D0A002558255825580D0A004459
:1045D000656661756C7473206C6F616465640D0A47
:1045E00000506172616D6574657273206C6F6164F7
:1045F00065640D0A00506172616D657465722043D7
:104600005243206572726F720D0A00506172616DC3
:1046100065746572732073746F7265642C204352E5
:10462000433D25780D0A0043414E4D41502073749F
:104630006F7265640D0A00747275650066616C7353
:1046400065007B002263616E6964223A25642C2236
:1046500063616E6F6666736574223A25642C22630B
:10466000616E6C656E677468223A25642C22636102
:104670006E6761696E223A25642C22697372782212
:104680003A25732C00226973706172616D223A744D
:104690007275652C226D696E696D756D223A25669D
:1046A0002C226D6178696D756D223A25662C226425
:1046B000656661756C74223A25662C2263617465A7
:1046C000676F7279223A222573222C2269223A25B9
:1046D000647D00226973706172616D223A66616C5B
:1046E00073657D000D0A7D0D0A0025630D0A2020EB
:1046F00020222573223A207B22756E6974223A2289
:104700002573222C2276616C7565223A25662C0071
:10471000416C6C206D6573736167652064656669C3
:104720006E6974696F6E7320636C65617265640D88
:104730000A004D697373696E6720617267756D65F4
:104740006E740D0A00556E6B6E6F776E207061721D
:10475000616D657465720D0A00256420656E747262
:104760006965732072656D6F7665640D0A00496E28
:1047700076616C69642043414E2049642025780DA0
:104780000A00496E76616C6964204F6666736574D1
:104790002025640D0A00496E76616C6964206C65A1
:1047A0006E6774682025640D0A0043616E6E6F7435
:1047B000206D617020616E796D6F7265206974651E
:1047C0006D7320746F2043414E2069642025640D71
:1047D0000A004D6178206D65737361676520636FB2
:1047E000756E7420726561636865640D0A004341EB
:1047F0004E206D6170207375636365737366756CAD
:104800002C202564206D65737361676525732061B5
:1048100063746976650D0A00426175642072617483
:1048200065206E6F772025640D0A0025660D0A004D
:10483000556E6B6E6F776E20706172616D65746519
:10484000723A20272573270D0A004E6F207061727F
:10485000616D657465722076616C75652067697637
:10486000656E0D0A00536574204F4B0D0A005661AA
:104870006C7565206F7574206F662072616E676558
:104880000D0A004E6F20666C616720676976656E61
:104890000D0A0068696464656E00466C6167206398
:1048A00068616E6765204F4B0D0A00556E6B6E6F29
:1048B000776E20706172616D657465722025730D6D
:1048C0000A00556E6B6E6F776E20666C61670D0A1D
:1048D0000067657400666C61670073747265616D72
:1048E0000064656661756C74730073617665006859
:1048F000656C70006A736F6E0063616E0073657241
:1049000069616C006572726F7273007265736574B1
:104910000066617374756172740000000003020127
:10492000000001000000286E756C6C29000000007A
:1049300049480008030000008E49000800000000FC
:10494000684900086D490008744900085B25755DD9
:104950003A202573202D2025730D0A004E6F204527
:1049600072726F72730D0A0053544F5000444552D7
:10497000415445005741524E00303D4E4F4E452C5C
:1049800020313D544553544552524F522C0054450A
:1049900053544552524F520000000800000050008E
:1049A00009000000000003000000200009000000D2
:1049B00000000400000020000500000000000500C9
:0849C0000000400003000000AC
:0C49C800B91800082D220008052700087F
:1049D40020000000000000000000000000000000B3
:1049E40000000000000000000000000000000000C3
:1049F4000000000038440008464400084F44000802
:104A04000000000060000000200000000100000021
:104A1400384400086C440008764400080000000094
:104A2400200000000000000002000000864400088E
:104A34008E4400089844000880F3FFFF007D0000C6
:104A44000000000000000000000000009B4400087B
:104A5400A244000800000000000000000000000064
:104A6400D007000000000000AF440008B74400086D
:104A7400000000000000000000000000D10700005A
:104A840000000000C5440008000000000000000011
:104A94000000000000000000D20700000000000039
:104AA400CD440008D54400080000000000000000C8
:104AB40000000000D307000000000000D9440008F3
:104AC400E1440008000000000000000000000000B5
:104AD400D407000000000000E3440008EB44000891
:104AE400000000000000000000000000D5070000E6
:104AF40001000000020000000000000000000000AF
:104B040000000000000000000000000000000000A1
:104B1400000000007949000800127A0000127A00AF
:044B240000127A0001
:040000050800433973
:00000001FF
